{
  "contractName": "Factory",
  "abi": [
    {
      "constant": true,
      "inputs": [
        {
          "name": "",
          "type": "address"
        }
      ],
      "name": "isInstantiation",
      "outputs": [
        {
          "name": "",
          "type": "bool"
        }
      ],
      "payable": false,
      "stateMutability": "view",
      "type": "function"
    },
    {
      "constant": true,
      "inputs": [
        {
          "name": "",
          "type": "address"
        },
        {
          "name": "",
          "type": "uint256"
        }
      ],
      "name": "instantiations",
      "outputs": [
        {
          "name": "",
          "type": "address"
        }
      ],
      "payable": false,
      "stateMutability": "view",
      "type": "function"
    },
    {
      "constant": true,
      "inputs": [
        {
          "name": "creator",
          "type": "address"
        }
      ],
      "name": "getInstantiationCount",
      "outputs": [
        {
          "name": "",
          "type": "uint256"
        }
      ],
      "payable": false,
      "stateMutability": "view",
      "type": "function"
    },
    {
      "anonymous": false,
      "inputs": [
        {
          "indexed": false,
          "name": "sender",
          "type": "address"
        },
        {
          "indexed": false,
          "name": "instantiation",
          "type": "address"
        }
      ],
      "name": "ContractInstantiation",
      "type": "event"
    }
  ],
  "bytecode": "0x6060604052341561000f57600080fd5b6102628061001e6000396000f300606060405260043610610057576000357c0100000000000000000000000000000000000000000000000000000000900463ffffffff1680632f4f33161461005c57806357183c82146100ad5780638f8384781461012f575b600080fd5b341561006757600080fd5b610093600480803573ffffffffffffffffffffffffffffffffffffffff1690602001909190505061017c565b604051808215151515815260200191505060405180910390f35b34156100b857600080fd5b6100ed600480803573ffffffffffffffffffffffffffffffffffffffff1690602001909190803590602001909190505061019c565b604051808273ffffffffffffffffffffffffffffffffffffffff1673ffffffffffffffffffffffffffffffffffffffff16815260200191505060405180910390f35b341561013a57600080fd5b610166600480803573ffffffffffffffffffffffffffffffffffffffff169060200190919050506101ea565b6040518082815260200191505060405180910390f35b60006020528060005260406000206000915054906101000a900460ff1681565b6001602052816000526040600020818154811015156101b757fe5b90600052602060002090016000915091509054906101000a900473ffffffffffffffffffffffffffffffffffffffff1681565b6000600160008373ffffffffffffffffffffffffffffffffffffffff1673ffffffffffffffffffffffffffffffffffffffff1681526020019081526020016000208054905090509190505600a165627a7a72305820bfb4e66ebde560b3882819c9716b6b2f110d92bf79a4fa8d7403573bbc61e4470029",
  "source": "pragma solidity ^0.4.18;\n\ncontract Factory {\n\n    /*\n     *  Events\n     */\n    event ContractInstantiation(address sender, address instantiation);\n\n    /*\n     *  Storage\n     */\n    mapping(address => bool) public isInstantiation;\n    mapping(address => address[]) public instantiations;\n\n    /*\n     * Public functions\n     */\n    /// @dev Returns number of instantiations by creator.\n    /// @param creator Contract creator.\n    /// @return Returns number of instantiations by creator.\n    function getInstantiationCount(address creator)\n        public\n        constant\n        returns (uint)\n    {\n        return instantiations[creator].length;\n    }\n\n    /*\n     * Internal functions\n     */\n    /// @dev Registers contract in factory registry.\n    /// @param instantiation Address of contract instantiation.\n    function register(address instantiation)\n        internal\n    {\n        isInstantiation[instantiation] = true;\n        instantiations[msg.sender].push(instantiation);\n        ContractInstantiation(msg.sender, instantiation);\n    }\n}\n",
  "sourcePath": "/Users/riccardoravaro/Documents/web/AFL/MultiSigWallet-master/contracts/Factory.sol",
  "compiler": {
    "name": "solc",
    "version": "0.4.18+commit.9cf6e910.Emscripten.clang"
  },
  "schemaVersion": "1.0.1",
  "updatedAt": "2018-02-05T06:11:24.720Z"
}